:020000020000FC
:020000001FC01F
:02000800FBC13A
:0200100006C226
:1000400000E10EBF0FEF0DBF00E80ABB0FE004BBDD
:1000500000E007BB01BB0AE008BB0CEC00936A00A0
:100060000AE009BF789441E0409545BB4095DF9890
:1000700000E1041B8FEF9FEF0197F1F70A95D1F78D
:10008000DF9A00E1041B8FEF9FEF0197F1F70A95CC
:04009000D1F7EDCFE8
:100400000F9300913F000F93413021F04A954095A2
:1004100045BB40950F9100933F000F9118950F93A6
:1004200000913F000F934F3021F04395409545BB1D
:0C04300040950F9100933F000F9118952C
:00000001FF
